:020000040800F2
:10000000000002203D100008750300087703000877
:10001000790300087B0300087D030008000000004E
:100020000000000000000000000000007F03000846
:100030008103000800000000830300088503000816
:100040008D1000088D1000088D1000088D1000081C
:100050008D1000088D1000088D1000088D1000080C
:100060008D1000088D1000088D1000088D100008FC
:100070008D1000088D1000088D1000088D100008EC
:100080008D1000088D1000088D1000088D100008DC
:100090008D1000088D1000088D1000088D100008CC
:1000A0008D1000088D1000088D1000088D100008BC
:1000B0008D1000088D1000088D1000088D100008AC
:1000C0008D1000088D1000088D1000088D1000089C
:1000D0008D1000088D1000088D1000088D1000088C
:1000E0008D1000088D1000088D1000088D1000087C
:1000F0008D1000088D1000088D1000088D1000086C
:100100008D1000088D1000088D1000088D1000085B
:100110008D1000088D1000088D1000088D1000084B
:100120008D1000088D1000088D1000088D1000083B
:100130008D1000088D1000088D1000088D1000082B
:100140008D1000088D1000088D1000088D1000081B
:100150008D1000088D1000088D1000088D1000080B
:100160008D1000088D1000088D1000088D100008FB
:100170008D1000088D1000088D1000088D100008EB
:100180008D1000088D1000088D1000088D100008DB
:100190008D100008000000008D1000088D10000870
:1001A0008D1000088D1000088D1000088D100008BB
:1001B0008D1000088D1000088D1000088D100008AB
:1001C0008D1000088D1000088D1000088D1000089B
:0801D0008D1000088D100008DD
:1001D8000348044B834202D0034B03B118477047CE
:1001E8000C0000200C000020000000000548064B11
:1001F8001B1AD90F01EBA301491002D0034B03B11D
:10020800184770470C0000200C0000200000000078
:1002180010B5064C237843B9FFF7DAFF044B13B146
:100228000448AFF300800123237010BD0C000020A8
:1002380000000000E810000808B5054B1BB105498F
:100248000548AFF30080BDE80840FFF7CFBF00BF07
:100258000000000010000020E810000830B589B048
:1002680003AC002203920492059206920792174B60
:10027800D96C41F00401D964D96C01F004010091F2
:100288000099D96C41F02001D964D96C01F02001A2
:1002980001910199D96C41F00101D964DB6C03F03B
:1002A80001030293029B0A4D4021284600F040FEBC
:1002B8004023039301230493022305930323069306
:1002C8002146284600F044FD09B030BD0010024028
:1002D8000008004872B6FEE710B594B006AC3822A4
:1002E8000021204600F0CFFE0020019002900390EC
:1002F8000490059000F062F8012306934FF48033D0
:10030800079302230D9303220E920F935522109206
:10031800119312931393204600F068F978B90F23CC
:100328000193032302930023039304930593042169
:100338000DEB010000F010FC18B914B010BDFFF768
:10034800C9FFFFF7C7FF000008B500F0EDF8FFF799
:10035800C3FFFFF783FF4021034800F0EEFD4FF491
:10036800FA7000F003F9F6E700080048FEE7FEE738
:10037800FEE7FEE7FEE770477047704708B500F0F4
:10038800E3F808BD00B583B00B4B1A6E42F00102CA
:100398001A661A6E02F001020092009A9A6D42F0F3
:1003A80080529A659B6D03F080530193019B00F086
:1003B8008BF803B05DF804FB00100240002836D12A
:1003C8003E4B1B6803F4C063B3F5806F08D03B4A0B
:1003D800D2F8803023F48073C2F880300020704750
:1003E800364AD2F8803023F48073C2F8803013681C
:1003F80023F4C06343F400731360314B1B6832224B
:1004080002FB03F32F4AA2FB03239B0C013300E0FA
:10041800013B2A4A526912F4806F01D0002BF7D1B0
:10042800264B5B6913F4806F44D100207047B0F508
:10043800007F08D0214A136823F4C06343F4806323
:100448001360002070471D4B1B6803F4C063B3F5AD
:10045800806F08D0194AD2F8803043F48073C2F80C
:10046800803000207047154AD2F8803043F48073FA
:10047800C2F88030136823F4C06343F40073136038
:100488000F4B1B68322202FB03F30E4AA2FB032325
:100498009B0C013300E0013B084A526912F4806F5B
:1004A80001D0002BF7D1054B5B6913F4806F03D1A2
:1004B80000207047032070470320704700700040F9
:1004C8000800002083DE1B43024A936843F48043FC
:1004D8009360704700700040104B1B680BB90120F7
:1004E800704710B504464FF47A70B0FBF3F30C4A2A
:1004F8001068B0FBF3F000F07FFD68B90F2C01D94C
:1005080001200AE0002221464FF0FF3000F064FD90
:10051800044B1C60002000E0012010BD00000020FA
:10052800080000200400002010B5032000F042FD60
:100538000F20FFF7D1FF10B10124204610BD04465B
:10054800FFF720FFF9E70000034A13680349096829
:100558000B441360704700BF2800002000000020F3
:10056800014B1868704700BF2800002038B50446C2
:10057800FFF7F6FF0546B4F1FF3F02D0044B1B68B6
:100588001C44FFF7EDFF401BA042FAD338BD00BF63
:1005980000000020124BDA6802F00302DB68C3F3A4
:1005A80003130133032A11D00E48B0FBF3F00C4BB0
:1005B800DB68C3F3062303FB00F0094BDB68C3F3D6
:1005C800416301335B00B0FBF3F070470648B0FBB2
:1005D800F3F0034BDB68C3F3062303FB00F0ECE7FF
:1005E800001002400024F40000127A00002800F0F5
:1005F8004F8270B582B00446036813F0010F37D0FC
:10060800A44A936803F00C03D26802F003020C2B8F
:1006180023D0082B23D06368B3F5803F4ED0B3F5C1
:10062800A02F51D09B4B1A6822F480321A601A68A6
:1006380022F480221A606368002B52D0FFF790FFE3
:100648000546944B1B6813F4003F11D1FFF788FF50
:10065800401B6428F5D9032023E2032AD9D18D4B06
:100668001B6813F4003F03D06368002B00F012826C
:10067800236813F0020F5DD0864A936803F00C03D9
:10068800D26802F003020C2B3AD0042B3AD0E3686C
:10069800002B75D07F4A136843F480731360FFF70B
:1006A8005FFF05467B4B1B6813F4806F5FD1FFF734
:1006B80057FF401B0228F5D90320F2E1754A136859
:1006C80043F480331360B6E703F18043A3F53C336A
:1006D8001A6842F480221A601A6842F480321A605A
:1006E800A9E7FFF73DFF05466A4B1B6813F4003F77
:1006F800BED0FFF735FF401B6428F5D90320D0E1B1
:10070800022AC2D1634B1B6813F4806F03D0E368DD
:10071800002B00F0C1815F4A536823F0FE43216932
:1007280043EA016353605C4B1868FFF7D5FE002865
:1007380040F0B481236813F0080F4CD063699BB371
:10074800544AD2F8943043F00103C2F89430FFF7CA
:1007580007FF05464F4BD3F8943013F0020F3AD1F8
:10076800FFF7FEFE401B0228F4D9032099E1494A0D
:10077800536823F0FE43216943EA01635360D9E7D4
:10078800444A136823F480731360FFF7E9FE0546B3
:10079800404B1B6813F4806FCCD0FFF7E1FE401B81
:1007A8000228F5D903207CE13A4AD2F8943023F0A4
:1007B8000103C2F89430FFF7D3FE0546354BD3F852
:1007C800943013F0020F06D0FFF7CAFE401B022830
:1007D800F4D9032065E1236813F0040F00F0818049
:1007E8002C4B9B6D13F0805F36D12A4B9A6D42F0EB
:1007F80080529A659B6D03F080530193019B0125FC
:10080800264B1B6813F4807F28D0A368012B39D0AE
:10081800052B45D01F4BD3F8902022F00102C3F8D6
:100828009020D3F8902022F00402C3F89020A36807
:10083800002B43D0FFF794FE0646164BD3F89030B2
:1008480013F0020F4CD1FFF78BFE801B41F2883367
:100858009842F2D9032024E10025D1E70F4A136812
:1008680043F480731360FFF77BFE06460B4B1B684F
:1008780013F4807FC9D1FFF773FE801B0228F5D9D6
:1008880003200EE1034AD2F8903043F00103C2F886
:100898009030CCE7001002400400002000700040B7
:1008A800884BD3F8902042F00402C3F89020D3F884
:1008B800902042F00102C3F89020B8E7FFF750FEFD
:1008C8000646804BD3F8903013F0020F08D0FFF79C
:1008D80047FE801B41F288339842F2D90320E0E0BA
:1008E800E5B9236813F0200F35D0A369E3B1754A41
:1008F800D2F8983043F00103C2F89830FFF730FE81
:100908000546704BD3F8983013F0020F23D1FFF748
:1009180027FE401B0228F4D90320C2E0694A936DE0
:1009280023F080539365DCE7664AD2F8983023F0C9
:100938000103C2F89830FFF713FE0546614BD3F860
:10094800983013F0020F06D0FFF70AFE401B02286A
:10095800F4D90320A5E0E369002B00F0A180594AEF
:10096800926802F00C020C2A64D0022B13D0554A6C
:10097800136823F080731360FFF7F2FD0446514BB0
:100988001B6813F0007F4ED0FFF7EAFD001B02281A
:10099800F5D9032085E04B4A136823F08073136070
:1009A800FFF7DEFD0546474B1B6813F0007F06D0B6
:1009B800FFF7D6FD401B0228F5D9032071E0414A14
:1009C800D36841491940236A606A013843EA001331
:1009D800A06A43EA0023206B4008013843EA4053E9
:1009E800606B4008013843EA4063E06A43EAC06349
:1009F8001943D160136843F080731360D36843F0E0
:100A08008073D360FFF7ACFD04462E4B1B6813F0D0
:100A1800007F06D1FFF7A4FD001B0228F5D90320AB
:100A28003FE000203DE0274AD168284B0B40D360C7
:100A3800002036E0012B36D0224BDB6803F003019F
:100A4800226A914231D103F0F002616A0139B2EBB6
:100A5800011F2CD103F4FE42A16AB2EB012F28D169
:100A680003F07842E16AB2EBC16F24D103F4C0010C
:100A7800226B5208013AB1EB425F1ED103F0C0630A
:100A8800626B5208013AB3EB426F18D1002008E0BC
:100A980001207047012004E0012002E0012000E06D
:100AA800002002B070BD0120FBE70120F9E701201A
:100AB800F7E70120F5E70120F3E70120F1E701203E
:100AC800EFE700BF001002400C809F01FCFFEEFE24
:100AD8001E4B9B6803F00C03042B33D01B4B9B6805
:100AE80003F00C03082B2FD0184B9B6803F00C0362
:100AF8000C2B01D000207047144BDA6802F0030277
:100B0800DB68C3F303130133032A11D01048B0FB89
:100B1800F3F00E4BDB68C3F3062303FB00F00B4B2B
:100B2800DB68C3F3416301335B00B0FBF3F070474C
:100B38000848B0FBF3F0054BDB68C3F3062303FB5F
:100B480000F0ECE702487047024870470010024086
:100B58000024F40000127A00002800F0E680F8B5BE
:100B68000C460546744B1B6803F00F038B420BD2EF
:100B7800714A136823F00F030B431360136803F0E3
:100B88000F038B4240F0D3802E6816F001065FD029
:100B98006B68032B2FD0022B4DD0684B1B6813F4C6
:100BA800806F00F0C680FFF793FF654B98424DD9E0
:100BB800624A936823F0F00343F080039360802631
:100BC8005E4A936823F0030369680B439360FFF759
:100BD800C7FC0746594B9B6803F00C036A68B3EBE4
:100BE800820F35D0FFF7BCFCC01B41F28833984216
:100BF800F0D9032078E0514B1B6813F0007F01D136
:100C0800012071E0FFF7C6FC4D4B98421AD94B4BB7
:100C18009B6813F0F00F05D02E6816F00206CFD0AF
:100C2800AB688BB9454A936823F0F00343F080031F
:100C380093608026C4E7414B1B6813F4003FB2D190
:100C4800012051E00026BBE70026B9E70026B7E7F8
:100C58002B6813F0020F48D013F0040F04D0374A62
:100C6800936843F4E06393602B6813F0080F06D091
:100C7800324A936823F47C5343F4E06393602F4A29
:100C8800936823F0F003A9680B4393602A4B1B6811
:100C980003F00F03A34230D82B6813F0040F06D0DB
:100CA800264A936823F4E063E9680B4393602B6852
:100CB80013F0080F07D0214A936823F46053296979
:100CC80043EAC1039360FFF703FF1C4B9B68C3F320
:100CD80003131C4AD35C03F01F03D8401A4B186057
:100CE8001A4B1868FFF7F8FBF8BD802ECED1134ACF
:100CF800936823F0F0039360C8E70F4A136823F062
:100D08000F0323431360FFF72BFC06460A4B1B68AF
:100D180003F00F03A342BFD0FFF722FC801B41F270
:100D280088339842F2D90320DEE70120704701207A
:100D3800DAE70120D8E700BF002002400010024097
:100D480000B4C404001100080800002004000020BA
:100D5800F0B583B0002366E085685E000324B440E4
:100D680025EA0405CC68B4402C438460456825EA2C
:100D78000C054C68C4F300149C402C43446063E0A9
:100D88008C68012C65D173E0DD08083550F82540E2
:100D980003F0070C4FEA8C0C4FF00F0E0EFA0CFE06
:100DA80024EA0E0E0C6904FA0CF444EA0E0440F826
:100DB800254062E0052400E0002404FA0EF42C43E8
:100DC8000CF1020C564D45F82C40564CA568D443FE
:100DD80025EA02064F6817F4801F01D042EA05068B
:100DE800504DAE60ED6804EA05064F6817F4001F21
:100DF80001D042EA05064B4DEE606D6804EA05062F
:100E08004F6817F4003F01D042EA0506454D6E6071
:100E18002D682C404E6816F4803F01D042EA050444
:100E2800404A146001330A6832FA03F476D04FF06E
:100E3800010C0CFA03FC1CEA0202F3D04C6804F023
:100E48000304013C012C87D94C6804F00304032CEB
:100E580096D0C4684FEA430E4FF0030C0CFA0EFC10
:100E680024EA0C0C8C6804FA0EF444EA0C04C460FE
:100E78004C6804F00304022C86D004684FEA430E41
:100E88004FF0030C0CFA0EFC24EA0C0C4C6804F02E
:100E9800030404FA0EF444EA0C0404604C6814F4E5
:100EA800403FBFD0204C256E45F001052566246ED5
:100EB80004F001040194019C4FEA930C0CF1020523
:100EC800174C54F8255003F0030E4FEA8E0E0F24EA
:100ED80004FA0EF425EA0405B0F1904F3FF46CAF24
:100EE800124CA04212D004F58064A04210D004F540
:100EF8008064A0420ED004F58064A0420CD004F5B2
:100F08008064A0423FF456AF062456E7012454E714
:100F1800022452E7032450E704244EE703B0F0BD4F
:100F28000000014000040140001002400004004895
:100F38000AB18161704781627047436901EA03021F
:100F480021EA030141EA024181617047002808DB78
:100F58000901C9B200F1604000F5614080F8001352
:100F6800704700F00F000901C9B2014B19547047CE
:100F780014ED00E000B500F00700C0F1070CBCF16B
:100F8800040F28BF4FF0040C031D062B0FD9C31EF6
:100F98004FF0FF3E0EFA0CF021EA000199400EFADC
:100FA80003FE22EA0E0241EA02005DF804FB002378
:100FB800EEE70000074AD36823F4E0631B041B0C28
:100FC800000200F4E060034343F0BF6343F40033DE
:100FD800D360704700ED00E010B50446054BD868B3
:100FE800C0F30220FFF7C6FF01462046FFF7AEFF19
:100FF80010BD00BF00ED00E00138B0F1807F0BD2DA
:101008004FF0E0235861054AF02182F823100020B0
:10101800986107221A6170470120704700ED00E0CF
:10102800034AD2F8883043F47003C2F88830704716
:1010380000ED00E00D488546FFF7F2FF0C480D492A
:101048000D4A002302E0D458C4500433C4188C421B
:10105800F9D30A4A0A4C002301E013600432A24281
:10106800FBD300F019F8FFF76FF9FEE70000022044
:10107800000000200C000020181100080C000020BF
:101088002C000020FEE702440346934200D170473B
:1010980003F8011BF9E7000070B50D4B0D4D5B1B04
:1010A8009C100026A64209D100F01AF80A4D0B4BF5
:1010B8005B1B9C100026A64205D170BD55F8043B69
:1010C80098470136EEE755F8043B98470136F2E7B2
:1010D8001011000810110008101100081411000860
:1010E800F8B500BFF8BC08BC9E467047F8B500BF0D
:0810F800F8BC08BC9E467047DD
:1011000000000000000000000102030406070809B7
:041110004102000890
:0411140019020008B4
:0C11180001000000100000000024F400A2
:040000050800103DA2
:00000001FF
